{
  "contractName": "PackageTracking",
  "abi": [
    {
      "constant": false,
      "inputs": [
        {
          "name": "_country",
          "type": "string"
        },
        {
          "name": "_location",
          "type": "string"
        }
      ],
      "name": "setPlace",
      "outputs": [],
      "payable": false,
      "stateMutability": "nonpayable",
      "type": "function"
    },
    {
      "constant": false,
      "inputs": [
        {
          "name": "_destination",
          "type": "string"
        }
      ],
      "name": "createPackage",
      "outputs": [
        {
          "name": "",
          "type": "uint256"
        }
      ],
      "payable": false,
      "stateMutability": "nonpayable",
      "type": "function"
    },
    {
      "constant": false,
      "inputs": [
        {
          "name": "_packageId",
          "type": "uint256"
        }
      ],
      "name": "scanPackage",
      "outputs": [
        {
          "name": "",
          "type": "uint256"
        }
      ],
      "payable": false,
      "stateMutability": "nonpayable",
      "type": "function"
    },
    {
      "constant": true,
      "inputs": [],
      "name": "getPlace",
      "outputs": [
        {
          "name": "",
          "type": "string"
        },
        {
          "name": "",
          "type": "string"
        }
      ],
      "payable": false,
      "stateMutability": "view",
      "type": "function"
    },
    {
      "constant": true,
      "inputs": [
        {
          "name": "_packageId",
          "type": "uint256"
        }
      ],
      "name": "getPackageById",
      "outputs": [
        {
          "name": "",
          "type": "address"
        },
        {
          "name": "",
          "type": "string"
        }
      ],
      "payable": false,
      "stateMutability": "view",
      "type": "function"
    },
    {
      "constant": true,
      "inputs": [
        {
          "name": "_scanId",
          "type": "uint256"
        }
      ],
      "name": "getScanById",
      "outputs": [
        {
          "name": "",
          "type": "address"
        },
        {
          "name": "",
          "type": "uint256"
        },
        {
          "name": "",
          "type": "uint256"
        },
        {
          "name": "",
          "type": "string"
        },
        {
          "name": "",
          "type": "string"
        }
      ],
      "payable": false,
      "stateMutability": "view",
      "type": "function"
    },
    {
      "constant": true,
      "inputs": [
        {
          "name": "_packageId",
          "type": "uint256"
        }
      ],
      "name": "getScanIdsByPackageId",
      "outputs": [
        {
          "name": "",
          "type": "uint256[]"
        }
      ],
      "payable": false,
      "stateMutability": "view",
      "type": "function"
    },
    {
      "constant": true,
      "inputs": [],
      "name": "getScanIds",
      "outputs": [
        {
          "name": "",
          "type": "uint256[]"
        }
      ],
      "payable": false,
      "stateMutability": "view",
      "type": "function"
    }
  ],
  "bytecode": "0x608060405234801561001057600080fd5b50611836806100206000396000f3fe608060405234801561001057600080fd5b50600436106100885760003560e01c8063bf506e1f1161005b578063bf506e1f1461028b578063cb85b02d146103df578063e3bfd1e6146104ce578063e4e1b28c1461062057610088565b806305541be71461008d5780632a1035e5146100cf57806346b84cad1461015257806355b237b11461022c575b600080fd5b6100b9600480360360208110156100a357600080fd5b81019080803590602001909291905050506106ef565b6040518082815260200191505060405180910390f35b6100fb600480360360208110156100e557600080fd5b8101908080359060200190929190505050610b54565b6040518080602001828103825283818151815260200191508051906020019060200280838360005b8381101561013e578082015181840152602081019050610123565b505050509050019250505060405180910390f35b61017e6004803603602081101561016857600080fd5b8101908080359060200190929190505050610c39565b604051808373ffffffffffffffffffffffffffffffffffffffff1673ffffffffffffffffffffffffffffffffffffffff16815260200180602001828103825283818151815260200191508051906020019080838360005b838110156101f05780820151818401526020810190506101d5565b50505050905090810190601f16801561021d5780820380516001836020036101000a031916815260200191505b50935050505060405180910390f35b610234610df6565b6040518080602001828103825283818151815260200191508051906020019060200280838360005b8381101561027757808201518184015260208101905061025c565b505050509050019250505060405180910390f35b6102b7600480360360208110156102a157600080fd5b8101908080359060200190929190505050610f4d565b604051808673ffffffffffffffffffffffffffffffffffffffff1673ffffffffffffffffffffffffffffffffffffffff1681526020018581526020018481526020018060200180602001838103835285818151815260200191508051906020019080838360005b8381101561033957808201518184015260208101905061031e565b50505050905090810190601f1680156103665780820380516001836020036101000a031916815260200191505b50838103825284818151815260200191508051906020019080838360005b8381101561039f578082015181840152602081019050610384565b50505050905090810190601f1680156103cc5780820380516001836020036101000a031916815260200191505b5097505050505050505060405180910390f35b6103e76111e0565b604051808060200180602001838103835285818151815260200191508051906020019080838360005b8381101561042b578082015181840152602081019050610410565b50505050905090810190601f1680156104585780820380516001836020036101000a031916815260200191505b50838103825284818151815260200191508051906020019080838360005b83811015610491578082015181840152602081019050610476565b50505050905090810190601f1680156104be5780820380516001836020036101000a031916815260200191505b5094505050505060405180910390f35b61061e600480360360408110156104e457600080fd5b810190808035906020019064010000000081111561050157600080fd5b82018360208201111561051357600080fd5b8035906020019184600183028401116401000000008311171561053557600080fd5b91908080601f016020809104026020016040519081016040528093929190818152602001838380828437600081840152601f19601f8201169050808301925050505050505091929192908035906020019064010000000081111561059857600080fd5b8201836020820111156105aa57600080fd5b803590602001918460018302840111640100000000831117156105cc57600080fd5b91908080601f016020809104026020016040519081016040528093929190818152602001838380828437600081840152601f19601f820116905080830192505050505050509192919290505050611471565b005b6106d96004803603602081101561063657600080fd5b810190808035906020019064010000000081111561065357600080fd5b82018360208201111561066557600080fd5b8035906020019184600183028401116401000000008311171561068757600080fd5b91908080601f016020809104026020016040519081016040528093929190818152602001838380828437600081840152601f19601f82011690508083019250505050505050919291929050505061157e565b6040518082815260200191505060405180910390f35b60006106f961164d565b600260003373ffffffffffffffffffffffffffffffffffffffff1673ffffffffffffffffffffffffffffffffffffffff1681526020019081526020016000206040518060600160405290816000820160009054906101000a900460ff16151515158152602001600182018054600181600116156101000203166002900480601f0160208091040260200160405190810160405280929190818152602001828054600181600116156101000203166002900480156107f75780601f106107cc576101008083540402835291602001916107f7565b820191906000526020600020905b8154815290600101906020018083116107da57829003601f168201915b50505050508152602001600282018054600181600116156101000203166002900480601f0160208091040260200160405190810160405280929190818152602001828054600181600116156101000203166002900480156108995780601f1061086e57610100808354040283529160200191610899565b820191906000526020600020905b81548152906001019060200180831161087c57829003601f168201915b5050505050815250509050600080549050831061091e576040517f08c379a00000000000000000000000000000000000000000000000000000000081526004018080602001828103825260188152602001807f7061636b616765496420646f6573206e6f74206578697374000000000000000081525060200191505060405180910390fd5b8060000151610995576040517f08c379a00000000000000000000000000000000000000000000000000000000081526004018080602001828103825260168152602001807f506c61636520686173206e6f74206265656e207365740000000000000000000081525060200191505060405180910390fd5b60006001806040518060a001604052803373ffffffffffffffffffffffffffffffffffffffff1681526020018781526020014381526020018560200151815260200185604001518152509080600181540180825580915050906001820390600052602060002090600502016000909192909190915060008201518160000160006101000a81548173ffffffffffffffffffffffffffffffffffffffff021916908373ffffffffffffffffffffffffffffffffffffffff16021790555060208201518160010155604082015181600201556060820151816003019080519060200190610a81929190611670565b506080820151816004019080519060200190610a9e929190611670565b505050039050600360003373ffffffffffffffffffffffffffffffffffffffff1673ffffffffffffffffffffffffffffffffffffffff168152602001908152602001600020819080600181540180825580915050906001820390600052602060002001600090919290919091505550600460008581526020019081526020016000208190806001815401808255809150509060018203906000526020600020016000909192909190915055508092505050919050565b60606000805490508210610bd0576040517f08c379a00000000000000000000000000000000000000000000000000000000081526004018080602001828103825260188152602001807f7061636b616765496420646f6573206e6f74206578697374000000000000000081525060200191505060405180910390fd5b60046000838152602001908152602001600020805480602002602001604051908101604052809291908181526020018280548015610c2d57602002820191906000526020600020905b815481526020019060010190808311610c19575b50505050509050919050565b600060606000805490508310610cb7576040517f08c379a00000000000000000000000000000000000000000000000000000000081526004018080602001828103825260188152602001807f7061636b616765496420646f6573206e6f74206578697374000000000000000081525060200191505060405180910390fd5b610cbf6116f0565b60008481548110610ccc57fe5b90600052602060002090600202016040518060400160405290816000820160009054906101000a900473ffffffffffffffffffffffffffffffffffffffff1673ffffffffffffffffffffffffffffffffffffffff1673ffffffffffffffffffffffffffffffffffffffff168152602001600182018054600181600116156101000203166002900480601f016020809104026020016040519081016040528092919081815260200182805460018160011615610100020316600290048015610dd45780601f10610da957610100808354040283529160200191610dd4565b820191906000526020600020905b815481529060010190602001808311610db757829003601f168201915b5050505050815250509050806000015181602001518090509250925050915091565b6060600260003373ffffffffffffffffffffffffffffffffffffffff1673ffffffffffffffffffffffffffffffffffffffff16815260200190815260200160002060000160009054906101000a900460ff16610eba576040517f08c379a00000000000000000000000000000000000000000000000000000000081526004018080602001828103825260168152602001807f506c61636520686173206e6f74206265656e207365740000000000000000000081525060200191505060405180910390fd5b600360003373ffffffffffffffffffffffffffffffffffffffff1673ffffffffffffffffffffffffffffffffffffffff168152602001908152602001600020805480602002602001604051908101604052809291908181526020018280548015610f4357602002820191906000526020600020905b815481526020019060010190808311610f2f575b5050505050905090565b60008060006060806001805490508610610fcf576040517f08c379a00000000000000000000000000000000000000000000000000000000081526004018080602001828103825260158152602001807f7363616e496420646f6573206e6f74206578697374000000000000000000000081525060200191505060405180910390fd5b610fd7611720565b60018781548110610fe457fe5b90600052602060002090600502016040518060a00160405290816000820160009054906101000a900473ffffffffffffffffffffffffffffffffffffffff1673ffffffffffffffffffffffffffffffffffffffff1673ffffffffffffffffffffffffffffffffffffffff1681526020016001820154815260200160028201548152602001600382018054600181600116156101000203166002900480601f0160208091040260200160405190810160405280929190818152602001828054600181600116156101000203166002900480156111005780601f106110d557610100808354040283529160200191611100565b820191906000526020600020905b8154815290600101906020018083116110e357829003601f168201915b50505050508152602001600482018054600181600116156101000203166002900480601f0160208091040260200160405190810160405280929190818152602001828054600181600116156101000203166002900480156111a25780601f10611177576101008083540402835291602001916111a2565b820191906000526020600020905b81548152906001019060200180831161118557829003601f168201915b505050505081525050905080600001518160200151826040015183606001518460800151819150809050955095509550955095505091939590929450565b606080600260003373ffffffffffffffffffffffffffffffffffffffff1673ffffffffffffffffffffffffffffffffffffffff16815260200190815260200160002060000160009054906101000a900460ff166112a5576040517f08c379a00000000000000000000000000000000000000000000000000000000081526004018080602001828103825260168152602001807f506c61636520686173206e6f74206265656e207365740000000000000000000081525060200191505060405180910390fd5b6112ad61164d565b600260003373ffffffffffffffffffffffffffffffffffffffff1673ffffffffffffffffffffffffffffffffffffffff1681526020019081526020016000206040518060600160405290816000820160009054906101000a900460ff16151515158152602001600182018054600181600116156101000203166002900480601f0160208091040260200160405190810160405280929190818152602001828054600181600116156101000203166002900480156113ab5780601f10611380576101008083540402835291602001916113ab565b820191906000526020600020905b81548152906001019060200180831161138e57829003601f168201915b50505050508152602001600282018054600181600116156101000203166002900480601f01602080910402602001604051908101604052809291908181526020018280546001816001161561010002031660029004801561144d5780601f106114225761010080835404028352916020019161144d565b820191906000526020600020905b81548152906001019060200180831161143057829003601f168201915b50505050508152505090508060200151816040015181915080905092509250509091565b81600260003373ffffffffffffffffffffffffffffffffffffffff1673ffffffffffffffffffffffffffffffffffffffff16815260200190815260200160002060010190805190602001906114c7929190611765565b5080600260003373ffffffffffffffffffffffffffffffffffffffff1673ffffffffffffffffffffffffffffffffffffffff168152602001908152602001600020600201908051906020019061151e929190611765565b506001600260003373ffffffffffffffffffffffffffffffffffffffff1673ffffffffffffffffffffffffffffffffffffffff16815260200190815260200160002060000160006101000a81548160ff0219169083151502179055505050565b6000806001600060405180604001604052803373ffffffffffffffffffffffffffffffffffffffff168152602001868152509080600181540180825580915050906001820390600052602060002090600202016000909192909190915060008201518160000160006101000a81548173ffffffffffffffffffffffffffffffffffffffff021916908373ffffffffffffffffffffffffffffffffffffffff160217905550602082015181600101908051906020019061163e929190611670565b50505003905080915050919050565b604051806060016040528060001515815260200160608152602001606081525090565b828054600181600116156101000203166002900490600052602060002090601f016020900481019282601f106116b157805160ff19168380011785556116df565b828001600101855582156116df579182015b828111156116de5782518255916020019190600101906116c3565b5b5090506116ec91906117e5565b5090565b6040518060400160405280600073ffffffffffffffffffffffffffffffffffffffff168152602001606081525090565b6040518060a00160405280600073ffffffffffffffffffffffffffffffffffffffff168152602001600081526020016000815260200160608152602001606081525090565b828054600181600116156101000203166002900490600052602060002090601f016020900481019282601f106117a657805160ff19168380011785556117d4565b828001600101855582156117d4579182015b828111156117d35782518255916020019190600101906117b8565b5b5090506117e191906117e5565b5090565b61180791905b808211156118035760008160009055506001016117eb565b5090565b9056fea165627a7a7230582060b1b30c03f93cf25fdad07478d53336ca106079c096ea1cdcbbbd1e88a4e8060029",
  "source": "pragma solidity ^0.5.1;\n\ncontract PackageTracking {\n    struct Place {\n        bool exists;\n        string country;\n        string location;\n    }\n    \n    struct Package {\n        address sentBy;\n        string destination;\n    }\n    \n    struct Scan {\n        address placeOwner;\n        uint packageId;\n        uint timestamp;  // block number\n        string country;\n        string location;\n    }\n    \n    Package[] packages;\n    Scan[] scans;         \n    \n    mapping (address => Place) ownerToPlace;\n    mapping (address => uint[]) placeOwnerToScanIds;\n    mapping (uint => uint[]) packageIdToScanIds;\n    \n    function setPlace(string memory _country, string memory _location) public {\n        ownerToPlace[msg.sender].country = _country;\n        ownerToPlace[msg.sender].location = _location;\n        ownerToPlace[msg.sender].exists = true;\n    }\n    \n    function createPackage(string memory _destination) public returns (uint) {\n        uint packageId = packages.push(Package(msg.sender, _destination)) - 1;\n        return packageId;\n    }\n    \n    function scanPackage(uint _packageId) public returns (uint) {\n        Place memory place = ownerToPlace[msg.sender];\n        require(_packageId < packages.length, \"packageId does not exist\");\n        require(place.exists, \"Place has not been set\");\n        \n        uint scanId = scans.push(Scan(msg.sender, _packageId, block.number, place.country, place.location)) - 1;\n        placeOwnerToScanIds[msg.sender].push(scanId);\n        packageIdToScanIds[_packageId].push(scanId);\n            \n        return scanId;\n    }\n    \n    function getPlace() public view returns (string memory, string memory) {\n        require(ownerToPlace[msg.sender].exists, \"Place has not been set\");\n        Place memory place = ownerToPlace[msg.sender];\n        return (place.country, place.location);\n    }\n    \n    function getPackageById(uint _packageId) public view returns (address, string memory) {\n        require(_packageId < packages.length, \"packageId does not exist\");\n        Package memory p = packages[_packageId];\n        return (p.sentBy, p.destination);\n    }\n    \n    function getScanById(uint _scanId) public view returns (address, uint, uint, string memory, string memory) {\n        require(_scanId < scans.length, \"scanId does not exist\");\n        Scan memory s = scans[_scanId];\n        return (s.placeOwner, s.packageId, s.timestamp, s.country, s.location);\n    }\n    \n    function getScanIdsByPackageId(uint _packageId) public view returns (uint[] memory) {\n        require(_packageId < packages.length, \"packageId does not exist\");\n        return packageIdToScanIds[_packageId];\n    }\n    \n    function getScanIds() public view returns (uint[] memory){\n        require(ownerToPlace[msg.sender].exists, \"Place has not been set\");\n        return placeOwnerToScanIds[msg.sender];\n    }\n}",
  "sourcePath": "/home/tobias/repos/system-analysis/src/ethereum/contracts/PackageTracking.sol",
  "compiler": {
    "name": "solc",
    "version": "0.5.8+commit.23d335f2.Emscripten.clang"
  },
  "schemaVersion": "3.0.10",
  "updatedAt": "2019-06-03T17:57:05.587Z",
  "devdoc": {
    "methods": {}
  },
  "userdoc": {
    "methods": {}
  }
}